{
  "contractName": "ZombieHelper",
  "abi": [
    {
      "constant": true,
      "inputs": [],
      "name": "howManyZombies",
      "outputs": [
        {
          "name": "",
          "type": "uint256"
        }
      ],
      "payable": false,
      "stateMutability": "view",
      "type": "function"
    },
    {
      "constant": false,
      "inputs": [
        {
          "name": "_zombieId",
          "type": "uint256"
        },
        {
          "name": "_kittyId",
          "type": "uint256"
        }
      ],
      "name": "feedOnKitty",
      "outputs": [],
      "payable": false,
      "stateMutability": "nonpayable",
      "type": "function"
    },
    {
      "constant": true,
      "inputs": [
        {
          "name": "",
          "type": "uint256"
        }
      ],
      "name": "zombies",
      "outputs": [
        {
          "name": "name",
          "type": "string"
        },
        {
          "name": "dna",
          "type": "uint256"
        },
        {
          "name": "level",
          "type": "uint32"
        },
        {
          "name": "readyTime",
          "type": "uint32"
        },
        {
          "name": "winCount",
          "type": "uint16"
        },
        {
          "name": "lossCount",
          "type": "uint16"
        }
      ],
      "payable": false,
      "stateMutability": "view",
      "type": "function"
    },
    {
      "constant": true,
      "inputs": [
        {
          "name": "",
          "type": "uint256"
        }
      ],
      "name": "blakes",
      "outputs": [
        {
          "name": "name",
          "type": "string"
        }
      ],
      "payable": false,
      "stateMutability": "view",
      "type": "function"
    },
    {
      "constant": true,
      "inputs": [
        {
          "name": "",
          "type": "uint256"
        }
      ],
      "name": "samplezombies",
      "outputs": [
        {
          "name": "name",
          "type": "string"
        },
        {
          "name": "dna",
          "type": "uint256"
        },
        {
          "name": "level",
          "type": "uint32"
        },
        {
          "name": "readyTime",
          "type": "uint32"
        },
        {
          "name": "winCount",
          "type": "uint16"
        },
        {
          "name": "lossCount",
          "type": "uint16"
        }
      ],
      "payable": false,
      "stateMutability": "view",
      "type": "function"
    },
    {
      "constant": true,
      "inputs": [
        {
          "name": "",
          "type": "uint256"
        }
      ],
      "name": "zombieToOwner",
      "outputs": [
        {
          "name": "",
          "type": "address"
        }
      ],
      "payable": false,
      "stateMutability": "view",
      "type": "function"
    },
    {
      "constant": false,
      "inputs": [
        {
          "name": "_address",
          "type": "address"
        }
      ],
      "name": "setKittyContractAddress",
      "outputs": [],
      "payable": false,
      "stateMutability": "nonpayable",
      "type": "function"
    },
    {
      "constant": false,
      "inputs": [
        {
          "name": "_name",
          "type": "string"
        }
      ],
      "name": "createRandomZombie",
      "outputs": [],
      "payable": false,
      "stateMutability": "nonpayable",
      "type": "function"
    },
    {
      "constant": true,
      "inputs": [],
      "name": "owner",
      "outputs": [
        {
          "name": "",
          "type": "address"
        }
      ],
      "payable": false,
      "stateMutability": "view",
      "type": "function"
    },
    {
      "constant": false,
      "inputs": [
        {
          "name": "_name",
          "type": "string"
        }
      ],
      "name": "createBlake",
      "outputs": [],
      "payable": false,
      "stateMutability": "nonpayable",
      "type": "function"
    },
    {
      "constant": true,
      "inputs": [],
      "name": "howManySampleZombies",
      "outputs": [
        {
          "name": "",
          "type": "uint256"
        }
      ],
      "payable": false,
      "stateMutability": "view",
      "type": "function"
    },
    {
      "constant": true,
      "inputs": [],
      "name": "howManyBlakes",
      "outputs": [
        {
          "name": "",
          "type": "uint256"
        }
      ],
      "payable": false,
      "stateMutability": "view",
      "type": "function"
    },
    {
      "constant": false,
      "inputs": [
        {
          "name": "newOwner",
          "type": "address"
        }
      ],
      "name": "transferOwnership",
      "outputs": [],
      "payable": false,
      "stateMutability": "nonpayable",
      "type": "function"
    },
    {
      "anonymous": false,
      "inputs": [
        {
          "indexed": false,
          "name": "zombieId",
          "type": "uint256"
        },
        {
          "indexed": false,
          "name": "name",
          "type": "string"
        },
        {
          "indexed": false,
          "name": "dna",
          "type": "uint256"
        }
      ],
      "name": "NewZombie",
      "type": "event"
    },
    {
      "anonymous": false,
      "inputs": [
        {
          "indexed": false,
          "name": "zombieId",
          "type": "uint256"
        },
        {
          "indexed": false,
          "name": "name",
          "type": "string"
        },
        {
          "indexed": false,
          "name": "dna",
          "type": "uint256"
        }
      ],
      "name": "NewSampleZombie",
      "type": "event"
    },
    {
      "anonymous": false,
      "inputs": [
        {
          "indexed": true,
          "name": "previousOwner",
          "type": "address"
        },
        {
          "indexed": true,
          "name": "newOwner",
          "type": "address"
        }
      ],
      "name": "OwnershipTransferred",
      "type": "event"
    },
    {
      "constant": false,
      "inputs": [],
      "name": "withdraw",
      "outputs": [],
      "payable": false,
      "stateMutability": "nonpayable",
      "type": "function"
    },
    {
      "constant": false,
      "inputs": [
        {
          "name": "_fee",
          "type": "uint256"
        }
      ],
      "name": "setLevelUpFee",
      "outputs": [],
      "payable": false,
      "stateMutability": "nonpayable",
      "type": "function"
    },
    {
      "constant": false,
      "inputs": [
        {
          "name": "_zombieId",
          "type": "uint256"
        }
      ],
      "name": "levelUp",
      "outputs": [],
      "payable": true,
      "stateMutability": "payable",
      "type": "function"
    },
    {
      "constant": false,
      "inputs": [
        {
          "name": "_zombieId",
          "type": "uint256"
        },
        {
          "name": "_newName",
          "type": "string"
        }
      ],
      "name": "changeName",
      "outputs": [],
      "payable": false,
      "stateMutability": "nonpayable",
      "type": "function"
    },
    {
      "constant": false,
      "inputs": [
        {
          "name": "_zombieId",
          "type": "uint256"
        },
        {
          "name": "_newDna",
          "type": "uint256"
        }
      ],
      "name": "changeDna",
      "outputs": [],
      "payable": false,
      "stateMutability": "nonpayable",
      "type": "function"
    },
    {
      "constant": true,
      "inputs": [
        {
          "name": "_owner",
          "type": "address"
        }
      ],
      "name": "getZombiesByOwner",
      "outputs": [
        {
          "name": "",
          "type": "uint256[]"
        }
      ],
      "payable": false,
      "stateMutability": "view",
      "type": "function"
    }
  ],
  "bytecode": "0x60606040526010600155600154600a0a6002556201518060035566038d7ea4c68000600a55336000806101000a81548173ffffffffffffffffffffffffffffffffffffffff021916908373ffffffffffffffffffffffffffffffffffffffff160217905550611dd8806100736000396000f300606060405260043610610106576000357c0100000000000000000000000000000000000000000000000000000000900463ffffffff16806236ce3e1461010b5780630ce90ec21461013457806317a7f4cc1461014c5780632052465e146101785780633790f5f71461025f5780633ccfd60b146102fb5780634412e104146103105780634e45f32c1461039e578063528b7b8f146104855780635f4623f1146104e85780635faf2880146105215780637bff0a011461054d5780638da5cb5b146105aa578063ba4bb206146105ff578063c39cbef11461065c578063ccf670f814610693578063d3a81f24146106b6578063d8fd86a4146106df578063f2fde38b14610708575b600080fd5b341561011657600080fd5b61011e610741565b6040518082815260200191505060405180910390f35b61014a600480803590602001909190505061074e565b005b341561015757600080fd5b61017660048080359060200190919080359060200190919050506107ba565b005b341561018357600080fd5b6101996004808035906020019091905050610919565b60405180806020018781526020018663ffffffff1663ffffffff1681526020018563ffffffff1663ffffffff1681526020018461ffff1661ffff1681526020018361ffff1661ffff168152602001828103825288818151815260200191508051906020019080838360005b8381101561021f578082015181840152602081019050610204565b50505050905090810190601f16801561024c5780820380516001836020036101000a031916815260200191505b5097505050505050505060405180910390f35b341561026a57600080fd5b6102806004808035906020019091905050610a38565b6040518080602001828103825283818151815260200191508051906020019080838360005b838110156102c05780820151818401526020810190506102a5565b50505050905090810190601f1680156102ed5780820380516001836020036101000a031916815260200191505b509250505060405180910390f35b341561030657600080fd5b61030e610afa565b005b341561031b57600080fd5b610347600480803573ffffffffffffffffffffffffffffffffffffffff16906020019091905050610bcf565b6040518080602001828103825283818151815260200191508051906020019060200280838360005b8381101561038a57808201518184015260208101905061036f565b505050509050019250505060405180910390f35b34156103a957600080fd5b6103bf6004808035906020019091905050610cfd565b60405180806020018781526020018663ffffffff1663ffffffff1681526020018563ffffffff1663ffffffff1681526020018461ffff1661ffff1681526020018361ffff1661ffff168152602001828103825288818151815260200191508051906020019080838360005b8381101561044557808201518184015260208101905061042a565b50505050905090810190601f1680156104725780820380516001836020036101000a031916815260200191505b5097505050505050505060405180910390f35b341561049057600080fd5b6104a66004808035906020019091905050610e1c565b604051808273ffffffffffffffffffffffffffffffffffffffff1673ffffffffffffffffffffffffffffffffffffffff16815260200191505060405180910390f35b34156104f357600080fd5b61051f600480803573ffffffffffffffffffffffffffffffffffffffff16906020019091905050610e4f565b005b341561052c57600080fd5b61054b6004808035906020019091908035906020019091905050610eee565b005b341561055857600080fd5b6105a8600480803590602001908201803590602001908080601f01602080910402602001604051908101604052809392919081815260200183838082843782019150505050505091905050610fd0565b005b34156105b557600080fd5b6105bd610ffc565b604051808273ffffffffffffffffffffffffffffffffffffffff1673ffffffffffffffffffffffffffffffffffffffff16815260200191505060405180910390f35b341561060a57600080fd5b61065a600480803590602001908201803590602001908080601f01602080910402602001604051908101604052809392919081815260200183838082843782019150505050505091905050611021565b005b341561066757600080fd5b6106916004808035906020019091908035906020019082018035906020019190919290505061107a565b005b341561069e57600080fd5b6106b46004808035906020019091905050611168565b005b34156106c157600080fd5b6106c96111cd565b6040518082815260200191505060405180910390f35b34156106ea57600080fd5b6106f26111da565b6040518082815260200191505060405180910390f35b341561071357600080fd5b61073f600480803573ffffffffffffffffffffffffffffffffffffffff169060200190919050506111e7565b005b6000600480549050905090565b600a543414151561075e57600080fd5b60048181548110151561076d57fe5b9060005260206000209060030201600201600081819054906101000a900463ffffffff168092919060010191906101000a81548163ffffffff021916908363ffffffff1602179055505050565b6000600960009054906101000a900473ffffffffffffffffffffffffffffffffffffffff1673ffffffffffffffffffffffffffffffffffffffff1663e98b7f4d836040518263ffffffff167c01000000000000000000000000000000000000000000000000000000000281526004018082815260200191505061014060405180830381600087803b151561084d57600080fd5b5af1151561085a57600080fd5b505050604051805190602001805190602001805190602001805190602001805190602001805190602001805190602001805190602001805190602001805190509091929394959697985090919293949596975090919293949596509091929394955090919293945090919293509091925090915090508091505061091483826040805190810160405280600581526020017f6b6974747900000000000000000000000000000000000000000000000000000081525061133c565b505050565b60048181548110151561092857fe5b9060005260206000209060030201600091509050806000018054600181600116156101000203166002900480601f0160208091040260200160405190810160405280929190818152602001828054600181600116156101000203166002900480156109d45780601f106109a9576101008083540402835291602001916109d4565b820191906000526020600020905b8154815290600101906020018083116109b757829003601f168201915b5050505050908060010154908060020160009054906101000a900463ffffffff16908060020160049054906101000a900463ffffffff16908060020160089054906101000a900461ffff169080600201600a9054906101000a900461ffff16905086565b600581815481101515610a4757fe5b9060005260206000209001600091509050806000018054600181600116156101000203166002900480601f016020809104026020016040519081016040528092919081815260200182805460018160011615610100020316600290048015610af05780601f10610ac557610100808354040283529160200191610af0565b820191906000526020600020905b815481529060010190602001808311610ad357829003601f168201915b5050505050905081565b6000809054906101000a900473ffffffffffffffffffffffffffffffffffffffff1673ffffffffffffffffffffffffffffffffffffffff163373ffffffffffffffffffffffffffffffffffffffff16141515610b5557600080fd5b6000809054906101000a900473ffffffffffffffffffffffffffffffffffffffff1673ffffffffffffffffffffffffffffffffffffffff166108fc3073ffffffffffffffffffffffffffffffffffffffff16319081150290604051600060405180830381858888f193505050501515610bcd57600080fd5b565b610bd7611a4e565b610bdf611a4e565b600080600860008673ffffffffffffffffffffffffffffffffffffffff1673ffffffffffffffffffffffffffffffffffffffff16815260200190815260200160002054604051805910610c2f5750595b9080825280602002602001820160405250925060009150600090505b600480549050811015610cf2578473ffffffffffffffffffffffffffffffffffffffff166007600083815260200190815260200160002060009054906101000a900473ffffffffffffffffffffffffffffffffffffffff1673ffffffffffffffffffffffffffffffffffffffff161415610ce557808383815181101515610cce57fe5b906020019060200201818152505081806001019250505b8080600101915050610c4b565b829350505050919050565b600681815481101515610d0c57fe5b9060005260206000209060030201600091509050806000018054600181600116156101000203166002900480601f016020809104026020016040519081016040528092919081815260200182805460018160011615610100020316600290048015610db85780601f10610d8d57610100808354040283529160200191610db8565b820191906000526020600020905b815481529060010190602001808311610d9b57829003601f168201915b5050505050908060010154908060020160009054906101000a900463ffffffff16908060020160049054906101000a900463ffffffff16908060020160089054906101000a900461ffff169080600201600a9054906101000a900461ffff16905086565b60076020528060005260406000206000915054906101000a900473ffffffffffffffffffffffffffffffffffffffff1681565b6000809054906101000a900473ffffffffffffffffffffffffffffffffffffffff1673ffffffffffffffffffffffffffffffffffffffff163373ffffffffffffffffffffffffffffffffffffffff16141515610eaa57600080fd5b80600960006101000a81548173ffffffffffffffffffffffffffffffffffffffff021916908373ffffffffffffffffffffffffffffffffffffffff16021790555050565b60148281600482815481101515610f0157fe5b906000526020600020906003020160020160009054906101000a900463ffffffff1663ffffffff1610151515610f3657600080fd5b836007600082815260200190815260200160002060009054906101000a900473ffffffffffffffffffffffffffffffffffffffff1673ffffffffffffffffffffffffffffffffffffffff163373ffffffffffffffffffffffffffffffffffffffff16141515610fa457600080fd5b83600486815481101515610fb457fe5b9060005260206000209060030201600101819055505050505050565b6000610fdb82611511565b9050606481811515610fe957fe5b0681039050610ff88282611593565b5050565b6000809054906101000a900473ffffffffffffffffffffffffffffffffffffffff1681565b600580548060010182816110359190611a62565b916000526020600020900160006020604051908101604052808581525090919091506000820151816000019080519060200190611073929190611a8e565b5050505050565b6002838160048281548110151561108d57fe5b906000526020600020906003020160020160009054906101000a900463ffffffff1663ffffffff16101515156110c257600080fd5b846007600082815260200190815260200160002060009054906101000a900473ffffffffffffffffffffffffffffffffffffffff1673ffffffffffffffffffffffffffffffffffffffff163373ffffffffffffffffffffffffffffffffffffffff1614151561113057600080fd5b848460048881548110151561114157fe5b9060005260206000209060030201600001919061115f929190611b0e565b50505050505050565b6000809054906101000a900473ffffffffffffffffffffffffffffffffffffffff1673ffffffffffffffffffffffffffffffffffffffff163373ffffffffffffffffffffffffffffffffffffffff161415156111c357600080fd5b80600a8190555050565b6000600680549050905090565b6000600580549050905090565b6000809054906101000a900473ffffffffffffffffffffffffffffffffffffffff1673ffffffffffffffffffffffffffffffffffffffff163373ffffffffffffffffffffffffffffffffffffffff1614151561124257600080fd5b600073ffffffffffffffffffffffffffffffffffffffff168173ffffffffffffffffffffffffffffffffffffffff161415151561127e57600080fd5b8073ffffffffffffffffffffffffffffffffffffffff166000809054906101000a900473ffffffffffffffffffffffffffffffffffffffff1673ffffffffffffffffffffffffffffffffffffffff167f8be0079c531659141344cd1fd0a4f28419497f9722a3daafe3b4186f6b6457e060405160405180910390a3806000806101000a81548173ffffffffffffffffffffffffffffffffffffffff021916908373ffffffffffffffffffffffffffffffffffffffff16021790555050565b600080846007600082815260200190815260200160002060009054906101000a900473ffffffffffffffffffffffffffffffffffffffff1673ffffffffffffffffffffffffffffffffffffffff163373ffffffffffffffffffffffffffffffffffffffff161415156113ad57600080fd5b6004868154811015156113bc57fe5b906000526020600020906003020192506113d5836119fd565b15156113e057600080fd5b600254858115156113ed57fe5b06945060028584600101540181151561140257fe5b04915060405180807f6b697474790000000000000000000000000000000000000000000000000000008152506005019050604051809103902060001916846040518082805190602001908083835b6020831015156114755780518252602082019150602081019050602083039250611450565b6001836020036101000a03801982511681845116808217855250505050505090500191505060405180910390206000191614156114c15760636064838115156114ba57fe5b0683030191505b6115006040805190810160405280600681526020017f4e6f4e616d65000000000000000000000000000000000000000000000000000081525083611593565b61150983611a24565b505050505050565b600080826040518082805190602001908083835b60208310151561154a5780518252602082019150602081019050602083039250611525565b6001836020036101000a03801982511681845116808217855250505050505090500191505060405180910390206001900490506002548181151561158a57fe5b06915050919050565b6000806001600480548060010182816115ac9190611b8e565b9160005260206000209060030201600060c060405190810160405280898152602001888152602001600163ffffffff168152602001600354420163ffffffff168152602001600061ffff168152602001600061ffff1681525090919091506000820151816000019080519060200190611626929190611a8e565b506020820151816001015560408201518160020160006101000a81548163ffffffff021916908363ffffffff16021790555060608201518160020160046101000a81548163ffffffff021916908363ffffffff16021790555060808201518160020160086101000a81548161ffff021916908361ffff16021790555060a082015181600201600a6101000a81548161ffff021916908361ffff1602179055505050039150336007600084815260200190815260200160002060006101000a81548173ffffffffffffffffffffffffffffffffffffffff021916908373ffffffffffffffffffffffffffffffffffffffff160217905550600860003373ffffffffffffffffffffffffffffffffffffffff1673ffffffffffffffffffffffffffffffffffffffff168152602001908152602001600020600081548092919060010191905055506001600680548060010182816117819190611bc0565b9160005260206000209060030201600060c060405190810160405280898152602001888152602001600163ffffffff168152602001600354420163ffffffff168152602001600061ffff168152602001600061ffff16815250909190915060008201518160000190805190602001906117fb929190611a8e565b506020820151816001015560408201518160020160006101000a81548163ffffffff021916908363ffffffff16021790555060608201518160020160046101000a81548163ffffffff021916908363ffffffff16021790555060808201518160020160086101000a81548161ffff021916908361ffff16021790555060a082015181600201600a6101000a81548161ffff021916908361ffff16021790555050500390507f45b406011626285c4c937ccbbfcedc6b4ea152beb72dad20e1a29945cb946ebd8285856040518084815260200180602001838152602001828103825284818151815260200191508051906020019080838360005b8381101561190f5780820151818401526020810190506118f4565b50505050905090810190601f16801561193c5780820380516001836020036101000a031916815260200191505b5094505050505060405180910390a17f88f026aacbbecc90c18411df4b1185fd8d9be2470f1962f192bf84a27d0704b78285856040518084815260200180602001838152602001828103825284818151815260200191508051906020019080838360005b838110156119bb5780820151818401526020810190506119a0565b50505050905090810190601f1680156119e85780820380516001836020036101000a031916815260200191505b5094505050505060405180910390a150505050565b6000428260020160049054906101000a900463ffffffff1663ffffffff1611159050919050565b60035442018160020160046101000a81548163ffffffff021916908363ffffffff16021790555050565b602060405190810160405280600081525090565b815481835581811511611a8957818360005260206000209182019101611a889190611bf2565b5b505050565b828054600181600116156101000203166002900490600052602060002090601f016020900481019282601f10611acf57805160ff1916838001178555611afd565b82800160010185558215611afd579182015b82811115611afc578251825591602001919060010190611ae1565b5b509050611b0a9190611c21565b5090565b828054600181600116156101000203166002900490600052602060002090601f016020900481019282601f10611b4f57803560ff1916838001178555611b7d565b82800160010185558215611b7d579182015b82811115611b7c578235825591602001919060010190611b61565b5b509050611b8a9190611c21565b5090565b815481835581811511611bbb57600302816003028360005260206000209182019101611bba9190611c46565b5b505050565b815481835581811511611bed57600302816003028360005260206000209182019101611bec9190611cd5565b5b505050565b611c1e91905b80821115611c1a5760008082016000611c119190611d64565b50600101611bf8565b5090565b90565b611c4391905b80821115611c3f576000816000905550600101611c27565b5090565b90565b611cd291905b80821115611cce5760008082016000611c659190611d64565b60018201600090556002820160006101000a81549063ffffffff02191690556002820160046101000a81549063ffffffff02191690556002820160086101000a81549061ffff021916905560028201600a6101000a81549061ffff021916905550600301611c4c565b5090565b90565b611d6191905b80821115611d5d5760008082016000611cf49190611d64565b60018201600090556002820160006101000a81549063ffffffff02191690556002820160046101000a81549063ffffffff02191690556002820160086101000a81549061ffff021916905560028201600a6101000a81549061ffff021916905550600301611cdb565b5090565b90565b50805460018160011615610100020316600290046000825580601f10611d8a5750611da9565b601f016020900490600052602060002090810190611da89190611c21565b5b505600a165627a7a723058202b83fad5cab4315753a23c300e948489a75c90e39535bd26b045373ee497677a0029",
  "source": "pragma solidity ^0.4.19;\n\nimport \"./zombiefeeding.sol\";\n\ncontract ZombieHelper is ZombieFeeding {\n\n  uint levelUpFee = 0.001 ether;\n\n  modifier aboveLevel(uint _level, uint _zombieId) {\n    require(zombies[_zombieId].level >= _level);\n    _;\n  }\n\n  function withdraw() external onlyOwner {\n    owner.transfer(address(this).balance);\n  }\n\n  function setLevelUpFee(uint _fee) external onlyOwner {\n    levelUpFee = _fee;\n  }\n\n  function levelUp(uint _zombieId) external payable {\n    require(msg.value == levelUpFee);\n    zombies[_zombieId].level++;\n  }\n\n  function changeName(uint _zombieId, string _newName) external aboveLevel(2, _zombieId) onlyOwnerOf(_zombieId) {\n    zombies[_zombieId].name = _newName;\n  }\n\n  function changeDna(uint _zombieId, uint _newDna) external aboveLevel(20, _zombieId) onlyOwnerOf(_zombieId) {\n    zombies[_zombieId].dna = _newDna;\n  }\n\n  function getZombiesByOwner(address _owner) external view returns(uint[]) {\n    uint[] memory result = new uint[](ownerZombieCount[_owner]);\n    uint counter = 0;\n    for (uint i = 0; i < zombies.length; i++) {\n      if (zombieToOwner[i] == _owner) {\n        result[counter] = i;\n        counter++;\n      }\n    }\n    return result;\n  }\n\n}\n",
  "sourcePath": "/Users/blake/Documents/Development/ethereum/react-zombies/contracts/zombiehelper.sol",
  "compiler": {
    "name": "solc",
    "version": "0.4.21+commit.dfe3193c.Emscripten.clang"
  },
  "schemaVersion": "2.0.0",
  "updatedAt": "2018-05-10T18:49:14.080Z"
}